:020000040000fa
:080000000002040000000000f2
:020000040000fa
:04000800ce03000023
:020000040000fa
:04000c00ce0300001f
:020000040000fa
:04001000ce0300001b
:020000040000fa
:04001400ce03000017
:020000040000fa
:04001800ce03000013
:020000040000fa
:04001c00ce0300000f
:020000040000fa
:04002000ce0300000b
:020000040000fa
:04002400ce03000007
:020000040000fa
:04002800ce03000003
:020000040000fa
:04002c00ce030000ff
:020000040000fa
:04003000ce030000fb
:020000040000fa
:040034009a0300002b
:020000040000fa
:04003800ce030000f3
:020000040000fa
:04003c00ce030000ef
:020000040000fa
:04004000ce030000eb
:020000040000fa
:04004400ce030000e7
:020000040000fa
:04004800ce030000e3
:020000040000fa
:04004c00ce030000df
:020000040000fa
:04005000ce030000db
:020000040000fa
:04005400fa020000ac
:020000040000fa
:04005800ce030000d3
:020000040000fa
:04005c00ce030000cf
:020000040000fa
:04006000ce030000cb
:020000040000fa
:04006400ce030000c7
:020000040000fa
:04006800ce030000c3
:020000040000fa
:04006c00ce030000bf
:020000040000fa
:04007000ce030000bb
:020000040000fa
:04007400ce030000b7
:020000040000fa
:04007800ce030000b3
:020000040000fa
:04007c00ce030000af
:020000040000fa
:04008000ce030000ab
:020000040000fa
:04008400ce030000a7
:020000040000fa
:04008800ce030000a3
:020000040000fa
:04008c00ce0300009f
:020000040000fa
:04009000ce0300009b
:020000040000fa
:04009400ce03000097
:020000040000fa
:04009800ce03000093
:020000040000fa
:04009c00ce0300008f
:020000040000fa
:0400a000ce0300008b
:020000040000fa
:0400a400ce03000087
:020000040000fa
:0400a800ce03000083
:020000040000fa
:0400ac00ce0300007f
:020000040000fa
:0400b000ce0300007b
:020000040000fa
:0400b400ce03000077
:020000040000fa
:0400b800ce03000073
:020000040000fa
:0400bc00ce0300006f
:020000040000fa
:0400c000ce0300006b
:020000040000fa
:0400c400ce03000067
:020000040000fa
:0400c800ce03000063
:020000040000fa
:0400cc00ce0300005f
:020000040000fa
:0400d000ce0300005b
:020000040000fa
:0400d400ce03000057
:020000040000fa
:0400d800ce03000053
:020000040000fa
:0400dc00ce0300004f
:020000040000fa
:0400e000ce0300004b
:020000040000fa
:0400e400ce03000047
:020000040000fa
:0400e800ce03000043
:020000040000fa
:0400ec00ce0300003f
:020000040000fa
:0400f000ce0300003b
:020000040000fa
:0400f400ce03000037
:020000040000fa
:0400f800ce03000033
:020000040000fa
:0400fc00ce0300002f
:020000040000fa
:04010000ce0300002a
:020000040000fa
:04010400ce03000026
:020000040000fa
:04010800ce03000022
:020000040000fa
:04010c00ce0300001e
:020000040000fa
:04011000ce0300001a
:020000040000fa
:04011400ce03000016
:020000040000fa
:04011800ce03000012
:020000040000fa
:04011c00ce0300000e
:020000040000fa
:04012000ce0300000a
:020000040000fa
:04012400ce03000006
:020000040000fa
:04012800ce03000002
:020000040000fa
:04012c00ce030000fe
:020000040000fa
:04013000ce030000fa
:020000040000fa
:04013400ce030000f6
:020000040000fa
:04013800ce030000f2
:020000040000fa
:04013c00ce030000ee
:020000040000fa
:04014000ce030000ea
:020000040000fa
:04014400ce030000e6
:020000040000fa
:04014800ce030000e2
:020000040000fa
:04014c00ce030000de
:020000040000fa
:04015000ce030000da
:020000040000fa
:04015400ce030000d6
:020000040000fa
:04015800ce030000d2
:020000040000fa
:04015c00ce030000ce
:020000040000fa
:04016000ce030000ca
:020000040000fa
:04016400ce030000c6
:020000040000fa
:04016800ce030000c2
:020000040000fa
:04016c00ce030000be
:020000040000fa
:04017000ce030000ba
:020000040000fa
:04017400ce030000b6
:020000040000fa
:04017800ce030000b2
:020000040000fa
:04017c00ce030000ae
:020000040000fa
:04018000ce030000aa
:020000040000fa
:04018400ce030000a6
:020000040000fa
:04018800ce030000a2
:020000040000fa
:04018c00ce0300009e
:020000040000fa
:04019000ce0300009a
:020000040000fa
:04019400ce03000096
:020000040000fa
:04019800ce03000092
:020000040000fa
:04019c00ce0300008e
:020000040000fa
:0401a000ce0300008a
:020000040000fa
:0401a400ce03000086
:020000040000fa
:0401a800ce03000082
:020000040000fa
:0401ac00ce0300007e
:020000040000fa
:0401b000ce0300007a
:020000040000fa
:0401b400ce03000076
:020000040000fa
:0401b800ce03000072
:020000040000fa
:0401bc00ce0300006e
:020000040000fa
:0401c000ce0300006a
:020000040000fa
:0401c400ce03000066
:020000040000fa
:0401c800ce03000062
:020000040000fa
:0401cc00ce0300005e
:020000040000fa
:0401d000ce0300005a
:020000040000fa
:0401d400ce03000056
:020000040000fa
:0401d800ce03000052
:020000040000fa
:0401dc00ce0300004e
:020000040000fa
:0401e000ce0300004a
:020000040000fa
:0401e400ce03000046
:020000040000fa
:0401e800ce03000042
:020000040000fa
:0401ec00ce0300003e
:020000040000fa
:0401f000ce0300003a
:020000040000fa
:0401f400ce03000036
:020000040000fa
:0401f800ce03000032
:020000040000fa
:0401fc00ce0300002e
:020000040000fa
:04020000ce03000029
:020000040000fa
:04020400ce03000025
:020000040000fa
:04020800ce03000021
:020000040000fa
:04020c00ce0300001d
:020000040000fa
:04021000ce03000019
:020000040000fa
:04021400ce03000015
:020000040000fa
:04021800ce03000011
:020000040000fa
:04021c00ce0300000d
:020000040000fa
:04022000ce03000009
:020000040000fa
:04022400ce03000005
:020000040000fa
:04022800ce03000001
:020000040000fa
:04022c00ce030000fd
:020000040000fa
:04023000ce030000f9
:020000040000fa
:04023400ce030000f5
:020000040000fa
:04023800ce030000f1
:020000040000fa
:04023c00ce030000ed
:020000040000fa
:04024000ce030000e9
:020000040000fa
:04024400ce030000e5
:020000040000fa
:04024800ce030000e1
:020000040000fa
:04024c00ce030000dd
:020000040000fa
:04025000ce030000d9
:020000040000fa
:04025400ce030000d5
:020000040000fa
:04025800ce030000d1
:020000040000fa
:04025c00ce030000cd
:020000040000fa
:04026000ce030000c9
:020000040000fa
:04026400ce030000c5
:020000040000fa
:04026800ce030000c1
:020000040000fa
:04026c00ce030000bd
:020000040000fa
:04027000ce030000b9
:020000040000fa
:04027400ce030000b5
:020000040000fa
:04027800ce030000b1
:020000040000fa
:04027c00ce030000ad
:020000040000fa
:04028000ce030000a9
:020000040000fa
:100400008fa121000eff21000e01880000000000d6
:10041000000020000000e000020032000001200087
:1004200020028800140007003c0107000000e000e3
:1004300003003a00e04321000100200002003700e1
:100440000000200001002000810f70000100320038
:100450000f000700000020000000e0000200320052
:100460000000020000000000ca06020000000000b8
:100470000040da000000fe00801a20000000e000ca
:1004800002003200002020009001880000000600d9
:10049000a1028800800478000000eb001f003700f4
:1004a000e284440054a0b4009905ba00e2844400f8
:1004b00054a0b4009906ba00e284440054a0b400e9
:1004c0000006eb00476fde00fd07b200ae018800ba
:1004d000636ce10003003a000ad801000000eb0061
:1004e0000e003700606ce10008003a00004deb00a0
:1004f0000a05e800020039003420ec000af0a000f0
:100500008b05e900f9ff3e00040037006168e10057
:10051000010032000086eb000b00070019c7ba008b
:100520000e04e0001905ba0003003a000a00e000da
:10053000dbff3a0000000600fe07b200ae028800b2
:100540008a047800f5ff37000cd0a300e20f4d00bd
:100550001c00390089027800354dba000a05e80010
:10056000020039003420ec000af0a0008b05e900fd
:100570000f003200254dba000a05e80002003900dc
:100580003420ec000af0a0008b05e90008003200de
:100590000c00e0000600320015cdba000a05e800a4
:1005a000020039003420ec000af0a0008b05e900bd
:1005b0008984e80054a0b4000b00e000e2ff3a0098
:1005c000000006009902ba00055d78008b05e9007d
:1005d000f7ff3200c82ade00055d78008b05e900d0
:1005e000f3ff32000c00e000f1ff320019ddba0029
:1005f000eeff37003600f800809fbe00829fbe00ed
:10060000849fbe00869fbe00889fbe003200f80017
:100610003400f80010002000a00188000020200015
:1006200000d0fe000000fa0005e1a9000021ef0063
:100630000060fe0010118000610060000000e0001a
:100640003000320005e1a8002a00370010118000b8
:10065000680060000000e0000e003a001011800009
:10066000640060000000e0000a003a009863210086
:10067000184478008884fb009800070080407800c8
:100680009053210000804400014878000840e800b1
:1006900039f6b70010118000620060000000e00031
:1006a00004003200870007003774ef0005e1a9005d
:1006b0008702070010118000640060000000e00065
:1006c000040032007f0007003774ef0005e1a90045
:1006d0007f02070010118000680060000000e00049
:1006e00004003200770007003774ef0005e1a9002d
:1006f0007702070010118000610060000000e00038
:10070000d2ff3a000168a90005e1a8000080fa00c4
:100710003400f9003200f9004f04be004f03be0060
:100720004f02be004f01be004f00be003600f90070
:10073000004006003600f800809fbe00829fbe0089
:10074000849fbe00869fbe003200f8003400f8008f
:1007500010002000a00188000020200000d0fe0032
:100760000000fa0005e1a9000060fe007103070027
:100770000021ef000068a9000080fa003400f900b1
:100780003200f9004f03be004f02be004f01be0011
:100790004f00be003600f900004006000040da00bd
:1007a0000000fe000602ab00feff3a000642ab006e
:1007b000fcff3a000662ab00faff3a000622ab00eb
:1007c000f8ff3a000682ab00f6ff3a0009c2ab0020
:1007d000f4ff3a00000006008040780000c0eb0003
:1007e0008180fb001110880008e2ab0007003a008e
:1007f00009c2ab00feff3a00eaff07000040eb0031
:100800000802e20001003d00e0cfb3000000060056
:100810000602a800000006000642a800000006002c
:100820000748a900e7006000f28f2f00c808dd002c
:10083000e3428000030161006800600002817000f3
:100840004300de00e242880061006000f1bf2f003b
:100850004a00dd003241800082806000810070002b
:100860003141880000000600000e8800110e88004b
:10087000220e880000000600300e8000510e80001d
:10088000000006000080eb006002ab0007003200b1
:1008900060c2a9006342ab00020032004013800036
:1008a0000000060040138000f00fb20000000600b8
:1008b000001020002202b6000000e9004f00de0018
:1008c0000000060021e2a9002168a9002188a900f2
:1008d0000168a9000188a90000000600001180003d
:1008e00066006000e60f500002003a003011800000
:1008f0000000060030118000f00fb200000006007a
:1009000001118000e6806000e68f50000100320097
:10091000f00fb20020118800000006000000050062
:020000040000fa
:1009200001000000015e0000030600000006000058
:10093000052800007c2800007c2800000524000019
:100940002a7f00002a100000036200001846000001
:10095000053000004c5a0000245000000106000041
:10096000023c000042020000423c0000052800005a
:10097000107c000010280000031000003810000058
:1009800001c0000003100000101000000140000032
:100990000360000018060000043c00004242000012
:1009a0003c030000447e000040040000446200005c
:1009b000524c0000034a00004a340000041e0000ac
:1009c000107c0000100300004e4a000032040000ba
:1009d0003c4a00004a30000003620000120e000092
:1009e000043400004a4a0000340400000c520000a5
:1009f000523c000001480000028000006803000033
:100a000010280000440300002828000028030000ec
:100a10004428000010030000025200000c050000f2
:100a20003c420000522a00003c0400007c120000fe
:100a3000127c0000047e00004a4a000034040000da
:100a40003c42000042240000047e000042420000bc
:100a50003c0300007e4a00004a0300007e0a0000ba
:100a60000a0400003c42000052340000047e0000f2
:100a7000080800007e030000427e000042030000e0
:100a8000424200003e0400007e08000014620000a4
:100a9000037e000040400000057e000004080000c6
:100aa000047e0000057e000004180000207e000087
:100ab000043c0000424200003c0400007e120000a2
:100ac000120c0000043c000042420000bc04000084
:100ad0007e120000126c0000044400004a4a00002c
:100ae00030030000027e0000020400003e400000cf
:100af000403e0000050600001860000018060000d7
:100b0000053e0000403e0000403e0000054200005f
:100b10002418000024420000049e0000a0a0000051
:100b20007e040000625200004a460000027e00007f
:100b3000420300000618000060020000427e000030
:100b400003200000102000000480000080800000ce
:100b5000800200000408000004200000545400003b
:100b6000780400007e44000044380000043800008f
:100b7000444400002804000038440000447e000083
:100b80000438000054540000580200007c0a0000a1
:100b900004980000a4a400007c0400007e0400006f
:100ba00004780000017a0000024000003a040000ce
:100bb0007e10000028440000017e0000057c00003b
:100bc0000478000004780000047c000004040000a5
:100bd00078040000384400004438000004fc0000a1
:100be00024240000180400001824000024fc000045
:100bf000027c00000404000048540000542000005f
:100c0000030400003e440000043c0000404000009b
:100c10003c0500000c300000403000000c050000d6
:100c20003c4000003c4000003c050000442800001f
:100c300010280000440400009ca00000a07c0000dc
:100c400003640000544c000003080000364100001b
:100c500001ff0000034100003608000004200000ee
:100c6000102000001000000000010000020300003e
:020000040000fa
:100c70000000fa00881f7800054ea800200320001d
:100c8000010020001c080700054ea9002434ef00d5
:100c90001600370021a18000704221000080400032
:100ca000104078000080fb004013880028a18000dd
:100cb000f4fe070080407800f0422100000044006c
:100cc00001487800000000002040800062006000c1
:100cd0000000e000fcff32000428a90040c2a90087
:100ce00020a180000000e80020a1880020a1800051
:100cf000e70f5000e7ff3600054ea8002003200054
:100d000001002000fc070700054ea90004eea90021
:100d10004f0478000080fa00000006000200fa008c
:100d2000000f78001e007800e30f50000b003e001b
:100d3000406328001e004000104078007f406000a3
:100d40000080fb007f0060004219800001fe2f0040
:100d50008100610001007000401988002023a80074
:100d6000a00f200001002000e30707002023a900b6
:100d700001003700000000000019800061006000e1
:100d80000000e000fbff3200001880000080fa0045
:100d9000000006000000fa007e000700014ea900d6
:100da00000eea900074ea90006eea900114ea90009
:100db000116ea9001d4ea8001d6ea800174ea900b7
:100dc000176ea90010cea80010eea800110ea80002
:100dd0001ccea8001ceea8001d0ea8001acea9006b
:100de0001aeea9001b0ea90004eea800054ea900ea
:100df000b7000700e2000700ed000700f03f200009
:100e0000e00e8800de21ef00a2aa2e00f180210072
:100e1000000d2c0094fe070040ff2f0080fe07000d
:100e20000e2eef001e2eef002e2eef0021e3a90064
:100e300021a3a90001198000f0cf2f0000806000dd
:100e4000001988000e0ea8000e2ea8001e0ea80085
:100e50001e2ea8001f0ea90011198000f0cf2f0030
:100e6000008060000080a000101988002000200091
:100e70004019880021e3a8006382a9006362a900e9
:100e80006342a9006322a8006302a80062e2a900ed
:100e900062c2a90062a2a8006242a9006262a80020
:100ea0006282a8006202a9006222a80065e2a9008d
:100eb00065c2a90065a2a9006422a90061e2a90097
:100ec00061a2a900001380000013800000138000bd
:100ed0002f74ef003074ef003174ef003274ef00c4
:100ee0003374ef003474ef003574ef003674ef00a4
:100ef0006822ef000428a90040c2a90061e2a8000e
:100f00000428a90040a7a8000060fe002428a9002a
:100f10002408a9000300370000000000010037008a
:100f20000000000038d4bf00e14f5000faff3a0043
:100f30003874ef000000eb0078ff07004200de008d
:100f4000e0a088001000200074ff07004200de00cf
:100f5000f0a088002000200070ff07004200de00a3
:100f600000a1880026d4bf000000fb00e10f500064
:100f700005003200e20f5000040032000000e000e3
:100f8000e7ff3a00020037000100370000000000d0
:100f9000e4ff37000000fa00213a8000f08f2f00b4
:100fa00000806000203a8800213a8000f0ff28008d
:100fb00000806000203a880060022000303a8800fb
:100fc000213a800000fe2f0000806000203a880057
:100fd000213a8000f0f32f0000806000203a880062
:100fe000113a8000f00b20000081600060042000b6
:100ff0007105200023742000804978008149780021
:10100000824978002136800000f82f00808060003f
:1010100080032000010070002036880061348000c9
:10102000f00f2c00008060000080a0006034880079
:101030006136800000f82f0080806000700320007f
:1010400001007000603688005134800000fc2f00e1
:10105000008060000030a0005034880031348000ef
:10106000f00f2c00808060000090200001007000d4
:1010700030348800e135800000f82f008080600067
:10108000e002200001007000e0358800e1358000ba
:10109000f00f28008080600000f022000100700046
:1010a000e0358800103a8000000178000260a0005e
:1010b000600420007105200023742000804978001e
:1010c00081497800824978000080fa00000006001b
:1010d0000000fa0021a2a90020c2a900011180008d
:1010e00090ff2f0000806000001188002002a900fe
:1010f0002062a800400020004011880011118000eb
:10110000f0f32f00008060001011880022e2a90097
:101110000168a9002168a80021e2a8002342a800d4
:101120000080fa00000006000000fa0031a2a900c9
:1011300030c2a9008111800090ff2f000080600064
:10114000801188003002a9003062a8004000200011
:10115000c011880091118000f0f32f000080600022
:101160009011880032e2a90003c8a90023c8a80092
:1011700031e2a8003342a8000080fa000000060017
:101180000000fa00a00f200010088800210880004d
:10119000f0fc2f0000806000200888000421a900d6
:1011a0002068a8000068a9000080fa00000006007e
:1011b0000400fa00e00020000100200020b98800af
:1011c00031b988004072210080c08800e000200012
:1011d0000100200040b9880051b9880080722100c8
:1011e000c0c18800200320000100200060b98800f1
:1011f00071b98800c072210000c38800100020006f
:1012000001002000a0b98800b1b988004073210016
:1012100040c48800900020000100200080b98800b0
:1012200091b988000073210080c58800200020004b
:1012300001002000c0b98800d1b988008073210066
:10124000c0c688000000eb00000f78001d003700ca
:101250009e0078006380400000004000000178009c
:101260009e007800800220008088b900800078000d
:10127000c07321000080400080407800b06d2100e4
:1012800000004100014878001e0078000000400086
:10129000670140009e007800800220008088b9002d
:1012a00080007800c0732100008040004880de008c
:1012b00080407800b06d21000000410001487800b6
:1012c0001e0fe8001e007800ea0f5000e0ff340017
:1012d000408f210000407800dbf6b700408f2100ee
:1012e0004880de0000407800dcf6b7000090210066
:1012f00000407800ddf6b700009021004880de0055
:1013000000407800def6b700c09021000040780071
:10131000dff6b700c09021004880de000040780072
:10132000e0f6b700b06d21000040780021f7b7006b
:10133000b06d21004880de000040780020f7b70043
:101340000000eb00100798001f0037001e009000ff
:101350006300400000004000000178009e00900003
:10136000800220008088b90080007800c0732100ce
:101370000080400080407800b069210000004100fa
:10138000014878001e009000000040006701400006
:101390009e009000800220008088b90080007800c4
:1013a000c0732100008040004880de00804078004b
:1013b000b069210000004100014878001e00900043
:1013c0000000e800100798001e009000e40f500095
:1013d000deff3400408f2100004078009bf6b7000c
:1013e000408f21004880de00004078009cf6b70066
:1013f00000902100004078009df6b7000090210089
:101400004880de00004078009ef6b700c0902100c2
:10141000004078009ff6b700c09021004880de00b1
:1014200000407800a0f6b700b069210000407800c5
:1014300023f7b700b06921004880de000040780043
:1014400022f7b7000080fa00000006000600fa004c
:10145000881f780040479800514798005e409000f0
:101460000004e0001b0032004e4090000084fb00ae
:10147000ce409000904321000206070091432100d6
:1014800081004400804878000000eb00000f7800e5
:101490000a003700904321001e00400010407800f1
:1014a0000080fb0016fd07000000000000fd0700a3
:1014b0000004e000fdff3a001e0fe8004e409000df
:1014c0000080fb000000e8009e0f5000f1ff3c0090
:1014d000150037000000eb00100798000d003700e2
:1014e0009e00900090432100008040001040780052
:1014f0000080fb0002fd070000000000ecfc07007c
:101500000004e000fdff3a001e0090000000e8002b
:10151000100798004e4090008080fb001e00900055
:10152000808f5000eeff3c004f0478000080fa00ee
:10153000000006000200fa00881f78000040eb005f
:10154000004f78000c0037009e81fb003ad6bf00a8
:101550000081fb009153210081004100114178007e
:10156000b163210081804100824878001e4fe8006d
:101570000040e8003af6b7009163210091407800fe
:101580003ad6bf0080cf5000efff3a001e80fb002c
:101590008000e900b0632100008040001044780022
:1015a0001e40e90080407800b0632100b5050700c7
:1015b000804f5400aa013a003bd6bf000080fb00d8
:1015c0006101b900b0fb2f00f1ff2f0002004000c5
:1015d00083804800920b200003002000820f5000ff
:1015e000838f58009e013e00000601002f01370046
:1015f000420137009a0137009901370098013700fe
:101600009701370096013700040137009401370035
:1016100093013700920137009101370090013700a4
:101620008f0137008e0137008d0137008c013700a4
:101630008b0137008a0137008901370088013700a4
:1016400087013700860137008501370084013700a4
:1016500083013700820137008101370080013700a4
:101660007f0137007e0137007d0137007c013700a4
:101670007b0137007a0137007901370078013700a4
:1016800077013700760137007501370074013700a4
:1016900073013700720137007101370070013700a4
:1016a0006f0137006e0137006d0137006c013700a4
:1016b0006b0137006a0137006901370068013700a4
:1016c00067013700660137006501370064013700a4
:1016d00063013700620137006101370060013700a4
:1016e0005f0137005e0137005d0137005c013700a4
:1016f0005b0137005a0137005901370058013700a4
:1017000057013700560137005501370054013700a3
:1017100053013700520137005101370050013700a3
:101720004f0137004e0137004d0137004c013700a3
:101730004b0137004a0137004901370048013700a3
:1017400047013700460137004501370044013700a3
:1017500043013700420137004101370040013700a3
:101760003f0137003e0137003d0137003c013700a3
:101770003b0137003a0137003901370038013700a3
:1017800037013700360137003501370034013700a3
:1017900033013700320137003101370030013700a3
:1017a0002f0137002e0137002d0137002c013700a3
:1017b0002b0137002a0137002901370028013700a3
:1017c000270137008500370057003700ed0037004c
:1017d0002301370022013700210137004d00370077
:1017e0001f0137001e0137001d0137001c013700a3
:1017f0001b0137009e003700190137001801370020
:1018000017013700160137001501370014013700a2
:1018100013013700120137004d0037005200370026
:10182000570037005c0037000d0137000c0137000e
:101830000b0137009300370009013700080137001a
:1018400007013700060137000501370004013700a2
:10185000030137001f00370001013700280037005f
:10186000ff003700fe003700fd003700fc003700a6
:101870004f00370079003700f9003700f8003700d3
:10188000f70037001900370083003700f4003700f5
:10189000f3003700f2003700f1003700f0003700a6
:1018a000ef003700ee003700ed003700ec003700a6
:1018b000eb003700ea003700e9003700e8003700a6
:1018c000e7003700e6003700e5003700e4003700a6
:1018d000a6003700a0c5b30039f4b70011c0b300ab
:1018e00010c0b300d9fe0700dd0037003974ef00e7
:1018f0008040eb0010c0b300d4fe0700d8003700d2
:101900003974ef008040eb0010c0b300cffe070039
:10191000d30037003974ef0011c0b30010c0b3001a
:10192000cafe0700ce00370060c9b30039f4b70023
:101930003a74ef003b74ef0030c1b3003cf4b700e1
:1019400011c0b30040c0b300c0fe0700c4003700a0
:1019500040c5b30039f4b70011c0b30010c0b300e4
:10196000bafe0700be00370030c5b30039f4b70037
:1019700011c0b30010c0b300b4fe0700b8003700b8
:1019800090c4b30039f4b70011c0b30010c0b30065
:10199000aefe0700b2003700f0c4b30039f4b70060
:1019a00011c0b30010c0b300a8fe0700ac003700a0
:1019b0003cd6bf0026f4b7003974ef008040eb003e
:1019c00010c0b300a1fe070026d4bf00e14f5000b5
:1019d000a20034002674ef00a1003700d0c0b3008d
:1019e00039f4b700d0c0b3003af4b70023d7bf0032
:1019f0003bf4b70022d7bf003cf4b70021d7bf00ab
:101a00003df4b70020d7bf003ef4b70011c0b300cb
:101a100060c0b3008dfe0700910037003dd6bf00c7
:101a20000080fb00c800dd003cd6bf000080fb004a
:101a300001007000f0b88800f0b88000e0b88800bd
:101a4000e0b880001040780039f4b70011c0b3004e
:101a500010c0b3007dfe0700810037003974ef002d
:101a60008040eb0010c0b30078fe07007c00370018
:101a70003974ef0011c0b30010c0b30073fe07004b
:101a8000770037003974ef0011c0b30010c0b30005
:101a90006efe0700720037003974ef008040eb00e3
:101aa00010c0b30069fe07006d0037003dd6bf00cf
:101ab0000080fb00c800dd003cd6bf000080fb00ba
:101ac00001007000f0b88800f0b88000e0b888002d
:101ad000e0b880001040780039f4b700e0b880002a
:101ae0000000e800104078003af4b70011c0b300dd
:101af00020c0b30055fe0700590037003dd6bf0097
:101b00000080fb00c800dd003cd6bf000080fb0069
:101b100001007000f0b88800f0b88000e0b88800dc
:101b2000e0b880001040780039f4b700e0b88000d9
:101b30000000e800104078003af4b700e0b88000f8
:101b40000000e800104078003bf4b700e0b88000e7
:101b50000000e800104078003cf4b70011c0b3006a
:101b600040c0b30039fe07003d003700a0c5b300f8
:101b700039f4b70011c0b30010c0b30033fe070042
:101b8000370037003cd6bf002ef4b7003dd6bf006b
:101b90002df4b7003ed6bf002cf4b7003fd6bf00ef
:101ba0002bf4b70040d6bf002af4b70041d6bf00df
:101bb00029f4b70042d6bf0028f4b70043d6bf00cf
:101bc00027f4b7003974ef0030d4bf003af4b700ff
:101bd00031d4bf003bf4b70032d4bf003cf4b700af
:101be00033d4bf003df4b70034d4bf003ef4b70097
:101bf00035d4bf003ff4b70036d4bf0040f4b7007f
:101c00002fd4bf0041f4b7001bfb07004e09dd00d5
:101c10004200de0000007100c208de0000407800d3
:101c200042f4b700e0a080000040780043f4b70021
:101c3000f0a080000040780044f4b7000cfc0700de
:101c400011c0b300d0c0b30000fe070010c0b30045
:101c500038f4b70000000000010037000000000069
:101c60004f0478000080fa00000006000400fa002b
:101c7000100798000000eb00000f78000000eb0058
:101c8000000f7800070037001e0090001e00400083
:101c900090407800000021001e00400001487800bc
:101ca0001e0fe800f03f20009e007800808f50005b
:101cb000f5ff36000080fa00000006000000fa0080
:101cc000e0cab3003200070050cdb3003000070077
:101cd00000c8b3002e00070080cab3002c00070024
:101ce000f0c3b3002a00070030cdb300280007007e
:101cf0000040eb002600070000c4b30024000700ea
:101d0000d0c8b3002200070040c1b3002000070084
:101d100000c2b3001e0007000040eb001c000700db
:101d200010cab3001a00070080ccb30018000700e7
:101d3000a0cdb3001600070020c1b30014000700b7
:101d400010c8b30012000700f0ccb3001000070069
:101d500090cdb3000e00070010cfb3000c000700b9
:101d6000b0cdb3000a00070000c4b30008000700ac
:101d700040cab3000600070060cab30004000700b1
:101d8000f0cab300020007000080fa00000006005d
:101d90000200fa00004f780082fa07009cfa070060
:101da0000000000030108000610060000000e000d2
:101db000fcff3a0080c7b30087fa0700000000006c
:101dc00040108000610060000000e000fcff3a006d
:101dd000000000004110800000002800008060002a
:101de0000000e000fbff3a000040eb007afa070039
:101df0000000000040108000610060000000e00072
:101e0000fcff3a00000000004110800000002800a4
:101e1000008060000000e000fbff3a001e407800f8
:101e20006dfa07007cfa07000080fa000000060047
:101e30000200fa00004f78001e4078000004e00025
:101e40000300320070cab300d1ff07000200370060
:101e500060cab300ceff07000080fa000000060051
:101e60000400fa001007980010c2b300c8ff070072
:101e70000040eb00c6ff0700f0c7b300c4ff070037
:101e800020c2b300c2ff07000040eb00c0ff070004
:101e900070c0b300beff07000040eb00004f7800a9
:101ea0001f0037003ffa070059fa07000000000042
:101eb00030108000610060000000e000fcff3a008c
:101ec00080c7b30044fa070000c4b30042fa070019
:101ed0000040eb00104798000c0037001e80fb000c
:101ee000c400dd001e4090000080fb000080400028
:101ef0009e009000008040001040780036fa0700f5
:101f00001e4090000040e800104798001e409000de
:101f1000ef4f5000f1ff36003ffa07001e4fe80078
:101f2000f0c3b3009e40780080cf5000ddff360044
:101f30000080fa00000006000400fa00004f78005c
:101f400011479800224798001e4078000004e000e6
:101f5000400035009e409000f0c3b30080cf500099
:101f60003e003e002e4090000004e0001c003200c5
:101f70001e81fb001e4090000080fb004300de003d
:101f8000004078008080fb00c708dd0001014100af
:101f90009e80fb000080fb004700dd008080400049
:101fa0000000210000804000104078008040780050
:101fb0001e4090000080fb006700600013002000be
:101fc0000018dd000040780000c0700080407800fc
:101fd0000000210000004100014878002000370087
:101fe0001e81fb001e4090000080fb004300de00cd
:101ff000004078008080fb00c708dd00010141003f
:102000009e80fb000080fb004700dd0080804000d8
:1020100000002100008040001040780080407800df
:102020001e4090000080fb0067006000130020004d
:102030000018dd000040780000c0ea0000c0600029
:102040008040780000002100000041000148780035
:10205000030037000000000001003700000000000e
:102060000080fa00000006000600fa0020479800f1
:1020700031479800424798000040eb00004f78003d
:10208000070037003e4090001e40400012c0b300e1
:10209000804078002e409000a7ff07001e4fe80008
:1020a0004e4090009e40780080cf5000f5ff3900f0
:1020b0000080fa00000006000600fa0020479800a1
:1020c00031479800424798000040eb00004f7800ed
:1020d000060037002e4090001e40400012c0b300a2
:1020e000be40900094ff07001e4fe8004e40900055
:1020f0009e40780080cf5000f6ff39000080fa0043
:10210000000006000c00fa00604798007147980034
:10211000024f9800134f9800244f98008e4890006b
:102120006e40900000c050000040e800404798001a
:102130009e4890007e40900000c05000504798009c
:102140002e4890000004e00011003a004e4190003b
:10215000fe4090006e409000d7ff07004e41900077
:102160009e4890006e409000d3ff07005e419000b3
:10217000fe4090006e409000bbff07005e41900063
:10218000fe4090000e489000b7ff07001d0037008a
:102190000000eb00000f7800160037000000eb0095
:1021a000100798000d0037001e0090008040780056
:1021b0007e40900080c040001e0078000041780002
:1021c0006e4090000040410012c0b3005aff07006b
:1021d0001e0090000000e800100798005e4090008c
:1021e0008080fb001e009000808f5000eeff3d00bd
:1021f0001e0fe8004e4090000080fb009e0f500034
:10220000e6ff3c000080fa00000006000a00fa0029
:102210006047980071479800024f9800134f98004c
:102220008e4890006e40900000c050000040e800d2
:10223000404798009e4890007e40900000c05000ab
:10224000504798000000eb00000f780016003700a0
:102250000000eb00100798000d0037001e009000f2
:10226000804078007e40900080c040001e007800d2
:10227000004178006e409000004041000041eb00ba
:102280002dff07001e0090000000e80010079800d6
:102290005e4090008080fb001e009000808f500008
:1022a000eeff3d001e0fe8004e4090000080fb0056
:1022b0009e0f5000e6ff3c000080fa000000060080
:1022c0000200fa000000eb00000f78000500370064
:1022d000000021001e0040008040eb000148780013
:1022e0001e0fe800f03f20009e007800808f500015
:1022f000f7ff36000080fa00000006000200fa0036
:10230000004f78001e407800c9fe07000080fa00e8
:10231000000006000000fa0000002100d0fe0700c7
:102320000080fa00000006000a00fa00200798006a
:1023300031079800420798003e009000c700dd007a
:102340002e00900000804000100798000040eb0035
:10235000004f78000e0037009e80fb001e009000aa
:10236000008140009e80fb004e00900000804000f5
:102370000000e800014928000080400090407800fb
:102380000000210000004100014878001e4fe800d5
:10239000014928004e009000008040001040780065
:1023a0009e4f5000ecff3e000080fa000000060047
:1023b0000a00fa00200798003107980042079800a9
:1023c000250037000000eb00000f78000000eb0054
:1023d0001007980009003700004928001e0040003f
:1023e000104078000080fb001e004000000fe80055
:1023f0001e0090000000e800100798004e009000ba
:10240000104078000000fb000002b100800078005e
:102410001e009000808f5000efff3e001e017800ec
:10242000be0090002e009000bfff0700004928006a
:102430001e004000104078008080fb002e009000bd
:10244000008040000000e800200798004e00900047
:102450000000e800400798004e009000104078000f
:102460000004e000d7ff3a000080fa0000000600f8
:102470000000fa00700120002010880007e2a90087
:102480000722a8000742a9000782a80007e2a800c7
:102490002228a9000228a9000080fa0000000600f6
:1024a0000000fa0006a2a9000682a80000000000b1
:1024b00030108000700060000000e000fcff3a0077
:1024c0000080fa00000006000000fa0006a2a80042
:1024d0000682a8000000000030108000700060003c
:1024e0000000e000fcff3a000080fa000000060057
:1024f0000000fa000662a9000642a80000000000e1
:1025000030108000640060000000e000fcff3a0032
:102510000080fa00000006000000fa0006a2a900f0
:102520000602a8000000000030108000610060007a
:102530000000e000fcff3a000080fa000000060006
:102540000000fa000622a800000000003010800001
:10255000620060000000e000fcff3a0006a2a90053
:102560000802a9000080fa00000006000000fa003e
:102570000000000041108000000028000080600082
:102580000000e000fbff3a000080fa0000000600b7
:102590000000fa000000000041108000000024004c
:1025a000008060000000e000fbff3a000080fa00bd
:1025b000000006000200fa00004f78001e80fb00b9
:1025c00010108800000000004010800061006000d2
:1025d0000000e000fcff3a000080fa000000060066
:1025e0000000fa000662a8000000000000000000e1
:1025f00040108000620060000000e000fcff32003c
:102600000080fa00000006000a00fa002047980047
:10261000314798004247980033079800044f9800cc
:102620003e0090004800de00004f78003e00900021
:1026300010479800b8ff07002e4090000000fb00f4
:102640000000400000407800daff0700d0ff0700dc
:102650001e407800d7ff0700cdff07001e40900006
:10266000d4ff0700caff07000e489000d1ff070003
:10267000c7ff07009eff07000080fa000000060069
:102680000a00fa00404798005147980062479800b6
:10269000430798004e0090004800de00004f78008d
:1026a0004e009000104798009bff07004e4090009e
:1026b0000000fb000000400000407800bdff070064
:1026c000b3ff07001e407800baff0700b0ff070005
:1026d0001e409000b7ff0700adff070098ff0700fe
:1026e0004e4090000000fb000000400000407800d9
:1026f0000004a000afff0700a5ff0700b8ff070018
:1027000071ff07007aff0700001080002047980043
:102710002e4090000080fa00000006000a00fa0037
:1027200020479800314798004247980033079800a7
:102730004407980078ff07002e4090000000fb003f
:1027400000004000004078009aff070090ff07005b
:102750003e40900097ff07008dff07004e4090001d
:1027600094ff07008aff07000000eb00000f7800cd
:10277000070037001e007800be0090000080400077
:10278000104078008bff070081ff07001e0fe80054
:102790004e0090009e007800808f5000f5ff3500bd
:1027a00053ff07000080fa00000006000a00fa004c
:1027b0002047980031479800424798003307980017
:1027c0004407980054ff07002e4090000000fb00d3
:1027d000000040000040780076ff07006cff070013
:1027e0003e40900073ff070069ff07004e409000d5
:1027f00070ff070066ff070051ff07002e409000a2
:102800000000fb0000004000004078000004a00031
:1028100068ff07005eff07000000eb00000f780074
:10282000090037006eff07001e007800be00900010
:10283000008040000110800081407800014878004d
:1028400017ff07001e0fe8004e0090009e00780062
:10285000808f5000f3ff35001e007800be0090000e
:10286000008040008040eb000148780016ff070020
:0c2870001fff07000080fa0000000600b7
:020000040000fa
:10287c00181900000001000082000000005ebc007e
:10288c00e2613f00dd83c2009c7e2000a3fd1f009f
:10289c00419dc300217ffc00a2401e005f01e300ac
:1028ac00bd3e600082dc23007d9fc100421cfe0007
:1028bc00a0e1bf005d038000de3c6200bee00200d0
:1028cc005cdf8100633d7c0022c09e001d43a100a3
:1028dc00ff461800faa42700799bc50084da38005b
:1028ec0066e5bb005907db0085673900bae40600d2
:1028fc0058194700a5fb780026c49a00653bd900ff
:10290c0087045a00b8e6a700f91b4500c6987a0060
:10291c0024f8a600441a9900c7257b003a64860067
:10292c00d85b0500e7b98c00d2306e00edb35100d6
:10293c000f4e1000f2ac2f007193cd00114fad0073
:10294c00f3702e00cc92d3008d6f3100b2ec0e00e0
:10295c0050aff100134dce0090722c006d33d100ae
:10296c008f0c5200b0ee32006c8ed000530def0085
:10297c00b1f0ae004c129100cf2d7300ca947600ca
:10298c0028abf5001749080056b4ea006937d500a2
:10299c008b570900ebb53600688ad40095cb29001b
:1029ac0077f4aa004816e900b7550b0088d6340016
:1029bc006a2b750097c94a0014f6a800742ac8003f
:1029cc0096154b00a9f7b600e80a5400d7896b009e
:1029dc0035000000001400003c03000080000000e3
:1029ec003c170000dc01000082000000a040010048
:1029fc0080000000000000000000000000006200e9
:102a0c00697400004f5554005055540000000000ec
:102a1c0000000000000000000000000000000000aa
:102a2c0000a04000010000000000000000000000b9
:102a3c00000000006269740000494e0050555400bb
:102a4c00000000000000000000000000000000007a
:102a5c00000000000000a0000808000000000000ba
:102a6c00000000000000000000636f00756e740031
:102a7c0000656e00636f640065722d00300000000d
:102a8c00000000000000000000000000a00806008c
:102a9c0000000000000000000000000000007600b4
:102aac00616c7500650070006f7469005f31000027
:102abc00000000000000000000000000000000000a
:102acc0000a008000600000000000000000000004c
:102adc000000000076616c0075650000706f74007a
:102aec00695f3200000000000000000000000000e0
:102afc00000000000000a000100280000000000098
:102b0c000000000000000000004e6f006e65000029
:102b1c00537752006576690073696f006e00000090
:102b2c00000000000000000000000000a0100200e7
:102b3c0080000000000000000000000000004e00bb
:102b4c006f6e650000487700526576006973690006
:102b5c006f6e00000000000000000000000000008c
:102b6c0000a01000040000000000000000000000a5
:102b7c00000000004e6f6e0065004e00565761005d
:102b8c0074636800446f670054696d00656f75006d
:102b9c00740000000000a0002004000000000000f1
:102bac000000000000000000004e6f006e65000089
:102bbc004e5655006e6974004e756d00626572005c
:102bcc00000000000000000000000000a010040045
:102bdc0040000000000000000000000000004e005b
:102bec006f6e6500004e56004261750064526100c4
:102bfc0074650000000000000000000000000000f0
:102c0c0000a02000040000000000000000000000f4
:102c1c00000000004e6f6e00650055006e69740078
:102c2c004e756d006265720000000000000000002f
:102c3c00000000000000b0000000000068773000c9
:102c4c00200000000000b00001010000737730008c
:102c5c00200000000000b00002010000737731007a
:102c6c002000000000000000001000000004000024
:082c7c008000000000000000d0
:020000040000fa
:102c84000600fa0010079800414798000040eb0046
:102c9400004f78000a0037001e00900010407800b2
:102ca4001e4068008080fb0080912100008040006d
:102cb400104f78001e0090000000e80010079800f4
:102cc4004e4090000080fb000000ea004f00de0050
:102cd40000407800ce4090008140e90041479800d0
:102ce4000004e000ecff3a001e4078000080fa0087
:042cf40000000600d6
:020000040000fa
:102cf800f03fb1000180b10006003500ee03090085
:102d080000000000403fb1000180b100fbff3d0022
:102d18001000b000203fb00002003500008009001c
:082d280000000000000006009d
:020000040000fa
:04afe000cfff00009f
:020000040000fa
:04afe400ffff00006b
:020000040000fa
:04afe80077ff0000ef
:020000040000fa
:04afec00bdff0000a5
:020000040000fa
:04aff0007bff0000e3
:020000040000fa
:04aff400ffff00005b
:00000001FF
