:020000040000fa
:080000000002040000000000f2
:020000040000fa
:040008008c03000065
:020000040000fa
:04000c008c03000061
:020000040000fa
:040010008c0300005d
:020000040000fa
:040014008c03000059
:020000040000fa
:040018008c03000055
:020000040000fa
:04001c008c03000051
:020000040000fa
:040020008c0300004d
:020000040000fa
:040024008c03000049
:020000040000fa
:040028008c03000045
:020000040000fa
:04002c008c03000041
:020000040000fa
:040030008c0300003d
:020000040000fa
:040034006003000065
:020000040000fa
:040038008c03000035
:020000040000fa
:04003c008c03000031
:020000040000fa
:040040008c0300002d
:020000040000fa
:040044008c03000029
:020000040000fa
:040048008c03000025
:020000040000fa
:04004c008c03000021
:020000040000fa
:040050008c0300001d
:020000040000fa
:04005400c8020000de
:020000040000fa
:040058008c03000015
:020000040000fa
:04005c008c03000011
:020000040000fa
:040060008c0300000d
:020000040000fa
:040064008c03000009
:020000040000fa
:040068008c03000005
:020000040000fa
:04006c008c03000001
:020000040000fa
:040070008c030000fd
:020000040000fa
:040074008c030000f9
:020000040000fa
:040078008c030000f5
:020000040000fa
:04007c008c030000f1
:020000040000fa
:040080008c030000ed
:020000040000fa
:040084008c030000e9
:020000040000fa
:040088008c030000e5
:020000040000fa
:04008c008c030000e1
:020000040000fa
:040090008c030000dd
:020000040000fa
:040094008c030000d9
:020000040000fa
:040098008c030000d5
:020000040000fa
:04009c008c030000d1
:020000040000fa
:0400a0008c030000cd
:020000040000fa
:0400a4008c030000c9
:020000040000fa
:0400a8008c030000c5
:020000040000fa
:0400ac008c030000c1
:020000040000fa
:0400b0008c030000bd
:020000040000fa
:0400b4008c030000b9
:020000040000fa
:0400b8008c030000b5
:020000040000fa
:0400bc008c030000b1
:020000040000fa
:0400c0008c030000ad
:020000040000fa
:0400c4008c030000a9
:020000040000fa
:0400c8008c030000a5
:020000040000fa
:0400cc008c030000a1
:020000040000fa
:0400d0008c0300009d
:020000040000fa
:0400d4008c03000099
:020000040000fa
:0400d8008c03000095
:020000040000fa
:0400dc008c03000091
:020000040000fa
:0400e0008c0300008d
:020000040000fa
:0400e4008c03000089
:020000040000fa
:0400e8008c03000085
:020000040000fa
:0400ec008c03000081
:020000040000fa
:0400f0008c0300007d
:020000040000fa
:0400f4008c03000079
:020000040000fa
:0400f8008c03000075
:020000040000fa
:0400fc008c03000071
:020000040000fa
:040100008c0300006c
:020000040000fa
:040104008c03000068
:020000040000fa
:040108008c03000064
:020000040000fa
:04010c008c03000060
:020000040000fa
:040110008c0300005c
:020000040000fa
:040114008c03000058
:020000040000fa
:040118008c03000054
:020000040000fa
:04011c008c03000050
:020000040000fa
:040120008c0300004c
:020000040000fa
:040124008c03000048
:020000040000fa
:040128008c03000044
:020000040000fa
:04012c008c03000040
:020000040000fa
:040130008c0300003c
:020000040000fa
:040134008c03000038
:020000040000fa
:040138008c03000034
:020000040000fa
:04013c008c03000030
:020000040000fa
:040140008c0300002c
:020000040000fa
:040144008c03000028
:020000040000fa
:040148008c03000024
:020000040000fa
:04014c008c03000020
:020000040000fa
:040150008c0300001c
:020000040000fa
:040154008c03000018
:020000040000fa
:040158008c03000014
:020000040000fa
:04015c008c03000010
:020000040000fa
:040160008c0300000c
:020000040000fa
:040164008c03000008
:020000040000fa
:040168008c03000004
:020000040000fa
:04016c008c03000000
:020000040000fa
:040170008c030000fc
:020000040000fa
:040174008c030000f8
:020000040000fa
:040178008c030000f4
:020000040000fa
:04017c008c030000f0
:020000040000fa
:040180008c030000ec
:020000040000fa
:040184008c030000e8
:020000040000fa
:040188008c030000e4
:020000040000fa
:04018c008c030000e0
:020000040000fa
:040190008c030000dc
:020000040000fa
:040194008c030000d8
:020000040000fa
:040198008c030000d4
:020000040000fa
:04019c008c030000d0
:020000040000fa
:0401a0008c030000cc
:020000040000fa
:0401a4008c030000c8
:020000040000fa
:0401a8008c030000c4
:020000040000fa
:0401ac008c030000c0
:020000040000fa
:0401b0008c030000bc
:020000040000fa
:0401b4008c030000b8
:020000040000fa
:0401b8008c030000b4
:020000040000fa
:0401bc008c030000b0
:020000040000fa
:0401c0008c030000ac
:020000040000fa
:0401c4008c030000a8
:020000040000fa
:0401c8008c030000a4
:020000040000fa
:0401cc008c030000a0
:020000040000fa
:0401d0008c0300009c
:020000040000fa
:0401d4008c03000098
:020000040000fa
:0401d8008c03000094
:020000040000fa
:0401dc008c03000090
:020000040000fa
:0401e0008c0300008c
:020000040000fa
:0401e4008c03000088
:020000040000fa
:0401e8008c03000084
:020000040000fa
:0401ec008c03000080
:020000040000fa
:0401f0008c0300007c
:020000040000fa
:0401f4008c03000078
:020000040000fa
:0401f8008c03000074
:020000040000fa
:0401fc008c03000070
:020000040000fa
:040208008c03000063
:020000040000fa
:04020c008c0300005f
:020000040000fa
:040210008c0300005b
:020000040000fa
:040214008c03000057
:020000040000fa
:040218008c03000053
:020000040000fa
:04021c008c0300004f
:020000040000fa
:040220008c0300004b
:020000040000fa
:040224008c03000047
:020000040000fa
:040228008c03000043
:020000040000fa
:04022c008c0300003f
:020000040000fa
:040230008c0300003b
:020000040000fa
:040234006003000063
:020000040000fa
:040238008c03000033
:020000040000fa
:04023c008c0300002f
:020000040000fa
:040240008c0300002b
:020000040000fa
:040244008c03000027
:020000040000fa
:040248008c03000023
:020000040000fa
:04024c008c0300001f
:020000040000fa
:040250008c0300001b
:020000040000fa
:04025400c8020000dc
:020000040000fa
:040258008c03000013
:020000040000fa
:04025c008c0300000f
:020000040000fa
:040260008c0300000b
:020000040000fa
:040264008c03000007
:020000040000fa
:040268008c03000003
:020000040000fa
:04026c008c030000ff
:020000040000fa
:040270008c030000fb
:020000040000fa
:040274008c030000f7
:020000040000fa
:040278008c030000f3
:020000040000fa
:04027c008c030000ef
:020000040000fa
:040280008c030000eb
:020000040000fa
:040284008c030000e7
:020000040000fa
:040288008c030000e3
:020000040000fa
:04028c008c030000df
:020000040000fa
:040290008c030000db
:020000040000fa
:040294008c030000d7
:020000040000fa
:040298008c030000d3
:020000040000fa
:04029c008c030000cf
:020000040000fa
:0402a0008c030000cb
:020000040000fa
:0402a4008c030000c7
:020000040000fa
:0402a8008c030000c3
:020000040000fa
:0402ac008c030000bf
:020000040000fa
:0402b0008c030000bb
:020000040000fa
:0402b4008c030000b7
:020000040000fa
:0402b8008c030000b3
:020000040000fa
:0402bc008c030000af
:020000040000fa
:0402c0008c030000ab
:020000040000fa
:0402c4008c030000a7
:020000040000fa
:0402c8008c030000a3
:020000040000fa
:0402cc008c0300009f
:020000040000fa
:0402d0008c0300009b
:020000040000fa
:0402d4008c03000097
:020000040000fa
:0402d8008c03000093
:020000040000fa
:0402dc008c0300008f
:020000040000fa
:0402e0008c0300008b
:020000040000fa
:0402e4008c03000087
:020000040000fa
:0402e8008c03000083
:020000040000fa
:0402ec008c0300007f
:020000040000fa
:0402f0008c0300007b
:020000040000fa
:0402f4008c03000077
:020000040000fa
:0402f8008c03000073
:020000040000fa
:0402fc008c0300006f
:020000040000fa
:040300008c0300006a
:020000040000fa
:040304008c03000066
:020000040000fa
:040308008c03000062
:020000040000fa
:04030c008c0300005e
:020000040000fa
:040310008c0300005a
:020000040000fa
:040314008c03000056
:020000040000fa
:040318008c03000052
:020000040000fa
:04031c008c0300004e
:020000040000fa
:040320008c0300004a
:020000040000fa
:040324008c03000046
:020000040000fa
:040328008c03000042
:020000040000fa
:04032c008c0300003e
:020000040000fa
:040330008c0300003a
:020000040000fa
:040334008c03000036
:020000040000fa
:040338008c03000032
:020000040000fa
:04033c008c0300002e
:020000040000fa
:040340008c0300002a
:020000040000fa
:040344008c03000026
:020000040000fa
:040348008c03000022
:020000040000fa
:04034c008c0300001e
:020000040000fa
:040350008c0300001a
:020000040000fa
:040354008c03000016
:020000040000fa
:040358008c03000012
:020000040000fa
:04035c008c0300000e
:020000040000fa
:040360008c0300000a
:020000040000fa
:040364008c03000006
:020000040000fa
:040368008c03000002
:020000040000fa
:04036c008c030000fe
:020000040000fa
:040370008c030000fa
:020000040000fa
:040374008c030000f6
:020000040000fa
:040378008c030000f2
:020000040000fa
:04037c008c030000ee
:020000040000fa
:040380008c030000ea
:020000040000fa
:040384008c030000e6
:020000040000fa
:040388008c030000e2
:020000040000fa
:04038c008c030000de
:020000040000fa
:040390008c030000da
:020000040000fa
:040394008c030000d6
:020000040000fa
:040398008c030000d2
:020000040000fa
:04039c008c030000ce
:020000040000fa
:0403a0008c030000ca
:020000040000fa
:0403a4008c030000c6
:020000040000fa
:0403a8008c030000c2
:020000040000fa
:0403ac008c030000be
:020000040000fa
:0403b0008c030000ba
:020000040000fa
:0403b4008c030000b6
:020000040000fa
:0403b8008c030000b2
:020000040000fa
:0403bc008c030000ae
:020000040000fa
:0403c0008c030000aa
:020000040000fa
:0403c4008c030000a6
:020000040000fa
:0403c8008c030000a2
:020000040000fa
:0403cc008c0300009e
:020000040000fa
:0403d0008c0300009a
:020000040000fa
:0403d4008c03000096
:020000040000fa
:0403d8008c03000092
:020000040000fa
:0403dc008c0300008e
:020000040000fa
:0403e0008c0300008a
:020000040000fa
:0403e4008c03000086
:020000040000fa
:0403e8008c03000082
:020000040000fa
:0403ec008c0300007e
:020000040000fa
:0403f0008c0300007a
:020000040000fa
:0403f4008c03000076
:020000040000fa
:0403f8008c03000072
:020000040000fa
:0403fc008c0300006e
:020000040000fa
:100400004fe220000ebf22000e0188000000000015
:10041000000020000000e000020032000001200087
:100420002002880014000700e50007000000e0003b
:1004300003003a0020b22000010020000200370033
:100440000000200001002000810f70000100320038
:1004500014000700000020000000e000020032004d
:10046000000002000000000038040200000000004c
:100470000040da000000fe004440a9000000200017
:100480000000e0000300320000002000a00188000e
:100490004440a800000006008a1f78008b1f7800e7
:1004a0000000060091018800800478000000eb0045
:1004b0001a003700e284440032a0b4009905ba0063
:1004c000e284440032a0b4009906ba00e2844400f9
:1004d00032a0b4000006eb00476fde00fd07b2005b
:1004e000636ce10003003a00ebff07000000eb0043
:1004f0000a003700606ce10004003a00005deb0088
:100500008b05e900fdff3e00040037006168e10053
:10051000010032000086eb000b00070019c7ba008b
:100520001905ba000e04e00003003a000a00e000da
:10053000e0ff3a0000000600fe07b2009e018800be
:100540008a047800f5ff3700395dba008b05e900b1
:100550000c003200295dba008b05e900080032006a
:100560000c00e00003003a00e284440032a0b40032
:10057000f5ff370019ddba008b05e900faff3a00f4
:100580008904e800e184440032a0b40000000600c1
:100590003600f800809fbe00829fbe00849fbe0090
:1005a000869fbe00889fbe003400f8000000200037
:1005b000a00188000000fa0005e1a9000021ef0079
:1005c0000060fe0010118000610060000000e0008b
:1005d0003000320005e1a8002a0037001011800029
:1005e000680060000000e0000e003a00101180007a
:1005f000640060000000e0000a003a0068a42000e7
:10060000184478008884fb005d0007008040780073
:100610006094200000804400014878000840e80011
:1006200046eab70010118000620060000000e000a0
:10063000040032004c0007004468ef0005e1a90007
:100640001c01070010118000640060000000e00041
:1006500004003200440007004468ef0005e1a900ef
:100660001401070010118000680060000000e00025
:10067000040032003c0007004468ef0005e1a900d7
:100680000c01070010118000610060000000e00014
:10069000d2ff3a008560a90005e1a8000080fa00b9
:1006a0003400f9004f04be004f03be004f02be00ed
:1006b0004f01be004f00be003600f90000400600aa
:1006c0003600f800809fbe00829fbe00849fbe005f
:1006d000869fbe003400f80000002000a0018800c2
:1006e0000000fa0005e1a9000060fe000a02070010
:1006f0000021ef008460a9000080fa003400f900b6
:100700004f03be004f02be004f01be004f00be00af
:100710003600f900004006000040da000000fe004c
:10072000200f8000000006000080eb006002ab009c
:100730000700320060c2a9006342ab000200320031
:10074000401380000000060040138000f00fb2004c
:1007500000000600001020002202b6000000e900a0
:100760004f00de000000060021e2a9009560a9000c
:100770009580a9008560a9008580a9000000060079
:100780000011800066006000e60f500002003a0091
:10079000301180000000060030118000f00fb20020
:1007a0000000060001118000e6806000e68f500026
:1007b00001003200f00fb200201188000000060096
:0407c0000000050030
:020000040000fa
:1007c4000000fa00881f7800e4e2a800200320005b
:1007d40001002000b6040700e4e2a9002028ef008d
:1007e4001600370001418000408320000080400053
:1007f400104078000080fb0040138800084180000e
:10080400c8ff070080407800c08320000000440037
:10081400014878000000000040048000620060008d
:100824000000e000fcff32008820a90040c2a900bb
:10083400004180000000e800004188000041800081
:10084400e70f5000e7ff3600e4e2a8002003200091
:100854000100200096040700e4e2a900e4a2a90034
:100864004f0478000080fa00000006000000fa003f
:100874007a000700e4a2a8008d000700b800070072
:10088400c3000700e421ef00f03f2000300f880090
:10089400e1a1a800010f8000007020000100700099
:1008a400000f8800e041a900e0e1a800e002a900ef
:1008b4000080eb001018880001e3a90001a3a9003f
:1008c4000103a90000e3a9000183a9000018800026
:1008d4007000b3000018880010e3a900811880009c
:1008e40000fe2f00008060000000a0008018880037
:1008f4000383a90003a3a90001e3a8006382a9005c
:100904006362a9006342a9006322a8006302a800ed
:1009140062e2a90062c2a90062a2a8006242a90020
:100924006262a8006282a8006202a9006222a80092
:1009340065e2a90065c2a90065a2a9006422a90014
:1009440061e2a90061a2a9000013800000138000e5
:1009540000138000c802a900e0a2a900e0e2a900f7
:100964003c68ef003d68ef003e68ef003f68ef0031
:100974004068ef004168ef004268ef004368ef0011
:100984006822ef008820a90040c2a90061e2a80003
:100994008820a90040a7a8000060fe009820a900b4
:1009a4009800a90003003700000000000100370090
:1009b40000000000201780000040780061406000c3
:1009c40000c0ea00614060000080fb00610060003c
:1009d400211780000100a100010070002017880089
:1009e40045c8bf00e14f5000efff3a004568ef00f3
:1009f40010a3a800000000003118800000042000ab
:100a0400008060000000e000fbff320006c3a90084
:100a140010c3a900c01a80004200de00e040880034
:100a2400d01a80004200de00f040880025c8bf00d4
:100a34000000fb00e10f500005003200e20f5000ff
:100a4400040032000000e000d9ff3a000200370041
:100a54000100370000000000d6ff37000000fa0054
:100a6400213a8000f08f2f0000806000203a880037
:100a7400213a8000f0ff280000806000203a8800be
:100a840060022000303a8800213a800000fe2f00e6
:100a940000806000203a8800213a8000f0f32f00a3
:100aa40000806000203a88000080fa000000060000
:100ab4000000fa0021a2a90020c2a90001118000af
:100ac40090ff2f0000806000001188002002a90020
:100ad4002062a8004000200040118800111180000d
:100ae400f0f32f00008060001011880022e2a900ba
:100af4008560a9009560a80021e2a8002342a8000f
:100b04000080fa00000006000000fa0031a2a900eb
:100b140030c2a9008111800090ff2f000080600086
:100b2400801188003002a9003062a8004000200033
:100b3400c011880091118000f0f32f000080600044
:100b44009011880032e2a90087c0a90097c0a800cc
:100b540031e2a8003342a8000080fa000000060039
:100b64000000fa00a00f200010088800210880006f
:100b7400f0fc2f0000806000200888000421a900f8
:100b84009460a8008460a9000080fa0000000600b8
:100b94000400fa00e00020000100200080598800d1
:100ba4009159880000b32000e0608800e000200034
:100bb40001002000a0598800b159880040b32000ea
:100bc400206288002003200001002000c059880012
:100bd400d159880080b32000606388001000200091
:100be40001002000005a8800115a880000b4200037
:100bf400a06488009000200001002000e0598800d3
:100c0400f1598800c0b32000e0658800200020006e
:100c140001002000205a8800315a880040b4200086
:100c2400206788000000eb00000f78001d003700eb
:100c34009e007800638040000000400000017800be
:100c44009e007800800220000088b90080007800af
:100c540080b42000008040008040780080ae2000f6
:100c640000004100014878001e00780000004000a8
:100c7400670140009e007800800220000088b900cf
:100c84008000780080b42000008040004880de00ae
:100c94008040780080ae20000000410001487800c8
:100ca4001e0fe8001e007800ea0f5000e0ff340039
:100cb40000d0200000407800e8eab70000d020000f
:100cc4004880de0000407800e9eab700c0d0200088
:100cd40000407800eaeab700c0d020004880de0077
:100ce40000407800ebeab70080d120000040780093
:100cf400eceab70080d120004880de000040780094
:100d0400edeab70080ae2000004078002debb7007c
:100d140080ae20004880de00004078002cebb70055
:100d24000000eb00100798001f0037001e00900021
:100d34006300400000004000000178009e00900025
:100d4400800220000088b9008000780080b4200070
:100d5400008040008040780080aa2000000041000c
:100d6400014878001e009000000040006701400028
:100d74009e009000800220000088b9008000780066
:100d840080b42000008040004880de00804078006d
:100d940080aa200000004100014878001e00900055
:100da4000000e800100798001e009000e40f5000b7
:100db400deff340000d0200000407800a8eab7002d
:100dc40000d020004880de0000407800a9eab70087
:100dd400c0d0200000407800aaeab700c0d02000ac
:100de4004880de0000407800abeab70080d12000e4
:100df40000407800aceab70080d120004880de00d3
:100e040000407800adeab70080aa200000407800d6
:100e14002febb70080aa20004880de000040780055
:100e24002eebb7000080fa00000006000600fa006e
:100e3400881f780040479800514798005e40900012
:100e44000004e0001b0032004e4090000084fb00d0
:100e5400ce40900060842000f802070061842000e6
:100e640081004400804878000000eb00000f780007
:100e74000a003700608420001e0040001040780003
:100e84000080fb0046fe07000000000030fe070063
:100e94000004e000fdff3a001e0fe8004e40900001
:100ea4000080fb000000e8009e0f5000f1ff3c00b2
:100eb400150037000000eb00100798000d00370004
:100ec4009e00900060842000008040001040780064
:100ed4000080fb0032fe0700000000001cfe07003b
:100ee4000004e000fdff3a001e0090000000e8004e
:100ef400100798004e4090008080fb001e00900078
:100f0400808f5000eeff3c004f0478000080fa0010
:100f1400000006000200fa00881f78000040eb0081
:100f2400004f78000c0037009e81fb0047cabf00c9
:100f34000081fb0061942000810041001141780090
:100f440081a4200081804100824878001e4fe8007f
:100f54000040e80047eab70061a42000914078000f
:100f640047cabf0080cf5000efff3a001e80fb004d
:100f74008000e90080a42000008040001044780034
:100f84001e40e9008040780080a42000ab020700e6
:100f9400804f5400a7013a0048cabf000080fb00fc
:100fa4006101b900b0fb2f00f1ff2f0002004000e7
:100fb40083804800920b200003002000820f500021
:100fc400838f58009b013e00006001002f01370011
:100fd4004201370097013700960137009501370029
:100fe4009401370093013700040137009101370061
:100ff400900137008f0137008e0137008d013700d3
:101004008c0137008b0137008a01370089013700d2
:1010140088013700870137008601370085013700d2
:1010240084013700830137008201370081013700d2
:10103400800137007f0137007e0137007d013700d2
:101044007c0137007b0137007a01370079013700d2
:1010540078013700770137007601370075013700d2
:1010640074013700730137007201370071013700d2
:10107400700137006f0137006e0137006d013700d2
:101084006c0137006b0137006a01370069013700d2
:1010940068013700670137006601370065013700d2
:1010a40064013700630137006201370061013700d2
:1010b400600137005f0137005e0137005d013700d2
:1010c4005c0137005b0137005a01370059013700d2
:1010d40058013700570137005601370055013700d2
:1010e40054013700530137005201370051013700d2
:1010f400500137004f0137004e0137004d013700d2
:101104004c0137004b0137004a01370049013700d1
:1011140048013700470137004601370045013700d1
:1011240044013700430137004201370041013700d1
:10113400400137003f0137003e0137003d013700d1
:101144003c0137003b0137003a01370039013700d1
:1011540038013700370137003601370035013700d1
:1011640034013700330137003201370031013700d1
:10117400300137002f0137002e0137002d013700d1
:101184002c0137002b0137002a01370029013700d1
:1011940028013700270137002601370025013700d1
:1011a400240137008500370057003700ed00370071
:1011b400200137001f0137001e0137004d003700a2
:1011c4001c0137001b0137001a01370019013700d1
:1011d400180137009e00370016013700150137004b
:1011e40014013700130137001201370011013700d1
:1011f400100137000f0137004d003700520037004f
:10120400570037005c0037000a0137000901370036
:101214000801370093003700060137000501370045
:1012240004013700030137000201370001013700d0
:10123400000137001f003700fe0037002800370088
:10124400fc003700fb003700fa003700f9003700d4
:101254004f00370079003700f6003700f5003700fb
:10126400f40037001900370083003700f10037001d
:10127400f0003700ef003700ee003700ed003700d4
:10128400ec003700eb003700ea003700e9003700d4
:10129400e8003700e7003700e6003700e5003700d4
:1012a400e4003700e3003700e2003700e1003700d4
:1012b400a6003700a0c5b30046e8b70011c0b300cc
:1012c40010c0b300d9fe0700da0037004668ef000b
:1012d4008040eb0010c0b300d4fe0700d5003700f7
:1012e4004668ef008040eb0010c0b300cffe07005b
:1012f400d00037004668ef0011c0b30010c0b3003f
:10130400cafe0700cb00370060c9b30046e8b70047
:101314004768ef004868ef0030c1b30049e8b70000
:1013240011c0b30040c0b300c0fe0700c1003700c5
:1013340040c5b30046e8b70011c0b30010c0b30005
:10134400bafe0700bb00370030c5b30046e8b7005b
:1013540011c0b30010c0b300b4fe0700b5003700dd
:1013640090c4b30046e8b70011c0b30010c0b30086
:10137400aefe0700af003700f0c4b30046e8b70084
:1013840011c0b30010c0b300a8fe0700a9003700c5
:1013940049cabf0025e8b7004668ef008040eb006b
:1013a40010c0b300a1fe070025c8bf00e14f5000e4
:1013b4009f0034002568ef009e003700d0c0b300c2
:1013c40046e8b700d0c0b30047e8b7002fcbbf0052
:1013d40048e8b7002ecbbf0049e8b7002dcbbf00cb
:1013e4004ae8b7002ccbbf004be8b70011c0b300ec
:1013f40060c0b3008dfe07008e0037004acabf00ec
:101404000080fb00c800dd0049cabf000080fb006b
:1014140001007000505988005059800040598800dc
:10142400405980001040780046e8b70011c0b3006e
:1014340010c0b3007dfe07007e0037004668ef0051
:101444008040eb0010c0b30078fe0700790037003d
:101454004668ef0011c0b30010c0b30073fe07006c
:10146400740037004668ef0011c0b30010c0b30029
:101474006efe07006f0037004668ef008040eb0007
:1014840010c0b30069fe07006a0037004acabf00f3
:101494000080fb00c800dd0049cabf000080fb00db
:1014a400010070005059880050598000405988004c
:1014b400405980001040780046e8b7004059800049
:1014c4000000e8001040780047e8b70011c0b300fe
:1014d40020c0b30055fe0700560037004acabf00bb
:1014e4000080fb00c800dd0049cabf000080fb008b
:1014f40001007000505988005059800040598800fc
:10150400405980001040780046e8b70040598000f8
:101514000000e8001040780047e8b7004059800018
:101524000000e8001040780048e8b7004059800007
:101534000000e8001040780049e8b70011c0b3008b
:1015440040c0b30039fe07003a003700a0c5b3001d
:1015540046e8b70011c0b30010c0b30033fe070063
:101564003400370049cabf003be8b7004acabf008d
:101574003ae8b7004bcabf0039e8b7004ccabf000d
:1015840038e8b7004dcabf0037e8b7004ecabf00fd
:1015940036e8b7004fcabf0035e8b70050cabf00ed
:1015a40034e8b7004668ef003dc8bf0047e8b7001d
:1015b4003ec8bf0048e8b7003fc8bf0049e8b700cd
:1015c40040c8bf004ae8b70041c8bf004be8b700b5
:1015d40042c8bf004ce8b70043c8bf004de8b7009d
:1015e4003cc8bf004ee8b7004cfc07004200de00d8
:1015f400004078004fe8b700e040800000407800e9
:1016040050e8b700f04080000040780051e8b7008f
:101614006bfc070011c0b300d0c0b30003fe070089
:1016240010c0b30045e8b700000000000100370017
:10163400000000004f0478000080fa00000006005b
:020000040000fa
:10164400240d00000001000002000000005ebc0048
:10165400e2613f00dd83c2009c7e2000a3fd1f00e9
:10166400419dc300217ffc00a2401e005f01e300f6
:10167400bd3e600082dc23007d9fc100421cfe0051
:10168400a0e1bf005d038000de3c6200bee002001a
:101694005cdf8100633d7c0022c09e001d43a100ed
:1016a400ff461800faa42700799bc50084da3800a5
:1016b40066e5bb005907db0085673900bae406001c
:1016c40058194700a5fb780026c49a00653bd90049
:1016d40087045a00b8e6a700f91b4500c6987a00ab
:1016e40024f8a600441a9900c7257b003a648600b2
:1016f400d85b0500e7b98c00d2306e00edb3510021
:101704000f4e1000f2ac2f007193cd00114fad00bd
:10171400f3702e00cc92d3008d6f3100b2ec0e002a
:1017240050aff100134dce0090722c006d33d100f8
:101734008f0c5200b0ee32006c8ed000530def00cf
:10174400b1f0ae004c129100cf2d7300ca94760014
:1017540028abf5001749080056b4ea006937d500ec
:101764008b570900ebb53600688ad40095cb290065
:1017740077f4aa004816e900b7550b0088d6340060
:101784006a2b750097c94a0014f6a800742ac80089
:1017940096154b00a9f7b600e80a5400d7896b00e8
:1017a40035000000000800004803000000000000ad
:1017b400480b0000dc01000002000000a040010012
:1017c4008000000000000000000000000000620033
:1017d400697400004f555400505554000000000037
:1017e40000000000000000000000000000000000f5
:1017f40000a0400001000000000000000000000004
:10180400000000006269740000494e005055540005
:1018140000000000000000000000000000000000c4
:10182400000000000000a000080800000000000004
:10183400000000000000000000636f00756e74007b
:1018440000656e00636f640065722d003000000057
:10185400000000000000000000000000a0080600d6
:1018640000000000000000000000000000007600fe
:10187400616c7500650070006f7469005f31000071
:101884000000000000000000000000000000000054
:1018940000a0080006000000000000000000000096
:1018a4000000000076616c0075650000706f7400c4
:1018b400695f32000000000000000000000000002a
:1018c400000000000000a0001002800000000000e2
:1018d4000000000000000000004e6f006e65000074
:1018e400537752006576690073696f006e000000db
:1018f400000000000000000000000000a010020032
:1019040080000000000000000000000000004e0005
:101914006f6e650000487700526576006973690050
:101924006f6e0000000000000000000000000000d6
:1019340000a01000040000000000000000000000ef
:10194400000000004e6f6e0065004e0056576100a7
:1019540074636800446f670054696d00656f7500b7
:10196400740000000000a00020040000000000003b
:101974000000000000000000004e6f006e650000d3
:101984004e5655006e6974004e756d0062657200a6
:10199400000000000000000000000000a01004008f
:1019a40040000000000000000000000000004e00a5
:1019b4006f6e6500004e560042617500645261000e
:1019c400746500000000000000000000000000003a
:1019d40000a020000400000000000000000000003f
:1019e400000000004e6f6e00650055006e697400c3
:1019f4004e756d006265720000000000000000007a
:101a0400000000000000b000000000006877300013
:101a1400200000000000b0000101000073773000d6
:101a2400200000000000b0000201000073773100c4
:0c1a340020000000000000000000000086
:020000040000fa
:101a40000600fa0010079800414798000040eb009c
:101a5000004f78000a0037001e0090001040780008
:101a60001e4068008080fb0040d2200000804000c3
:101a7000104f78001e0090000000e800100798004a
:101a80004e4090000080fb000000ea004f00de00a6
:101a900000407800ce4090008140e9004147980026
:101aa0000004e000ecff3a001e4078000080fa00dd
:041ab000000006002c
:020000040000fa
:101ab400f03fb1000180b10006003500ee030900db
:101ac40000000000403fb1000180b100fbff3d0079
:101ad4001000b000203fb000020035000080090073
:081ae4000000000000000600f4
:020000040000fa
:0200000401f009
:04000000ffff0000fe
:020000040000fa
:0200000401f009
:04000800ffff0000f6
:020000040000fa
:0200000401f009
:04000c007bffff0077
:020000040000fa
:0200000401f009
:040010007dffff0071
:020000040000fa
:0200000401f009
:0400140074ffff0076
:020000040000fa
:0200000401f009
:04001800f7000000ed
:020000040000fa
:0200000401f009
:04001c00dfffff0003
:020000040000fa
:0200000401f009
:04002000ffff0000de
:00000001FF
